{
  "_format": "hh3-artifact-1",
  "contractName": "AcademicCertificate",
  "sourceName": "contracts/AcademicCertificate.sol",
  "abi": [
    {
      "inputs": [],
      "stateMutability": "nonpayable",
      "type": "constructor"
    },
    {
      "anonymous": false,
      "inputs": [
        {
          "indexed": true,
          "internalType": "string",
          "name": "ipfsHash",
          "type": "string"
        },
        {
          "indexed": true,
          "internalType": "address",
          "name": "issuer",
          "type": "address"
        },
        {
          "indexed": false,
          "internalType": "uint256",
          "name": "issuanceDate",
          "type": "uint256"
        }
      ],
      "name": "CertificateIssued",
      "type": "event"
    },
    {
      "inputs": [],
      "name": "admin",
      "outputs": [
        {
          "internalType": "address",
          "name": "",
          "type": "address"
        }
      ],
      "stateMutability": "view",
      "type": "function"
    },
    {
      "inputs": [
        {
          "internalType": "address",
          "name": "_uniAddress",
          "type": "address"
        }
      ],
      "name": "authorizeUniversity",
      "outputs": [],
      "stateMutability": "nonpayable",
      "type": "function"
    },
    {
      "inputs": [
        {
          "internalType": "address",
          "name": "",
          "type": "address"
        }
      ],
      "name": "authorizedUniversities",
      "outputs": [
        {
          "internalType": "bool",
          "name": "",
          "type": "bool"
        }
      ],
      "stateMutability": "view",
      "type": "function"
    },
    {
      "inputs": [
        {
          "internalType": "string",
          "name": "",
          "type": "string"
        }
      ],
      "name": "certificates",
      "outputs": [
        {
          "internalType": "string",
          "name": "ipfsHash",
          "type": "string"
        },
        {
          "internalType": "address",
          "name": "issuer",
          "type": "address"
        },
        {
          "internalType": "uint256",
          "name": "issuanceDate",
          "type": "uint256"
        },
        {
          "internalType": "bool",
          "name": "isValid",
          "type": "bool"
        }
      ],
      "stateMutability": "view",
      "type": "function"
    },
    {
      "inputs": [
        {
          "internalType": "string",
          "name": "_ipfsHash",
          "type": "string"
        }
      ],
      "name": "issueCertificate",
      "outputs": [],
      "stateMutability": "nonpayable",
      "type": "function"
    },
    {
      "inputs": [
        {
          "internalType": "string",
          "name": "_ipfsHash",
          "type": "string"
        }
      ],
      "name": "verifyCertificate",
      "outputs": [
        {
          "internalType": "bool",
          "name": "",
          "type": "bool"
        },
        {
          "internalType": "address",
          "name": "",
          "type": "address"
        },
        {
          "internalType": "uint256",
          "name": "",
          "type": "uint256"
        }
      ],
      "stateMutability": "view",
      "type": "function"
    }
  ],
  "bytecode": "0x6080604052348015600e575f5ffd5b505f80546001600160a01b031916331790556108278061002d5f395ff3fe608060405234801561000f575f5ffd5b5060043610610060575f3560e01c80632bdab62a146100645780638b23d8751461009b5780638f2b91ea146100d3578063a90547a6146100f6578063dd9947a11461010b578063f851a4401461011e575b5f5ffd5b610086610072366004610553565b60016020525f908152604090205460ff1681565b60405190151581526020015b60405180910390f35b6100ae6100a9366004610594565b610148565b6040805193151584526001600160a01b03909216602084015290820152606001610092565b6100e66100e1366004610594565b610253565b6040516100929493929190610647565b610109610104366004610594565b61031b565b005b610109610119366004610553565b6104d4565b5f54610130906001600160a01b031681565b6040516001600160a01b039091168152602001610092565b5f5f5f5f60028560405161015c919061069c565b90815260200160405180910390206040518060800160405290815f82018054610184906106b2565b80601f01602080910402602001604051908101604052809291908181526020018280546101b0906106b2565b80156101fb5780601f106101d2576101008083540402835291602001916101fb565b820191905f5260205f20905b8154815290600101906020018083116101de57829003601f168201915b505050918352505060018201546001600160a01b0316602080830191909152600283015460408084019190915260039093015460ff161515606092830152908301519083015192909101519097919650945092505050565b8051602081830181018051600282529282019190930120915280548190610279906106b2565b80601f01602080910402602001604051908101604052809291908181526020018280546102a5906106b2565b80156102f05780601f106102c7576101008083540402835291602001916102f0565b820191905f5260205f20905b8154815290600101906020018083116102d357829003601f168201915b505050506001830154600284015460039094015492936001600160a01b039091169290915060ff1684565b335f9081526001602052604090205460ff1661037e5760405162461bcd60e51b815260206004820152601d60248201527f4e6f7420616e20617574686f72697a656420756e69766572736974792100000060448201526064015b60405180910390fd5b60028160405161038e919061069c565b9081526040519081900360200190206003015460ff16156103f15760405162461bcd60e51b815260206004820152601b60248201527f436572746966696361746520616c7265616479206578697374732100000000006044820152606401610375565b60408051608081018252828152336020820152428183015260016060820152905160029061042090849061069c565b9081526040519081900360200190208151819061043d9082610736565b5060208201516001820180546001600160a01b0319166001600160a01b0390921691909117905560408083015160028301556060909201516003909101805460ff191691151591909117905551339061049790839061069c565b604051908190038120428252907f1251b43dc8d03f329af062ae5f5c09cbdd6df52152ce8b1c5878cc2cb00eb23c9060200160405180910390a350565b5f546001600160a01b0316331461052d5760405162461bcd60e51b815260206004820152601860248201527f4f6e6c792041646d696e2063616e20617574686f72697a6500000000000000006044820152606401610375565b6001600160a01b03165f908152600160208190526040909120805460ff19169091179055565b5f60208284031215610563575f5ffd5b81356001600160a01b0381168114610579575f5ffd5b9392505050565b634e487b7160e01b5f52604160045260245ffd5b5f602082840312156105a4575f5ffd5b813567ffffffffffffffff8111156105ba575f5ffd5b8201601f810184136105ca575f5ffd5b803567ffffffffffffffff8111156105e4576105e4610580565b604051601f8201601f19908116603f0116810167ffffffffffffffff8111828210171561061357610613610580565b60405281815282820160200186101561062a575f5ffd5b816020840160208301375f91810160200191909152949350505050565b608081525f8551806080840152806020880160a085015e5f60a08285018101919091526001600160a01b039690961660208401526040830194909452509015156060820152601f909101601f19160101919050565b5f82518060208501845e5f920191825250919050565b600181811c908216806106c657607f821691505b6020821081036106e457634e487b7160e01b5f52602260045260245ffd5b50919050565b601f82111561073157805f5260205f20601f840160051c8101602085101561070f5750805b601f840160051c820191505b8181101561072e575f815560010161071b565b50505b505050565b815167ffffffffffffffff81111561075057610750610580565b6107648161075e84546106b2565b846106ea565b6020601f821160018114610796575f831561077f5750848201515b5f19600385901b1c1916600184901b17845561072e565b5f84815260208120601f198516915b828110156107c557878501518255602094850194600190920191016107a5565b50848210156107e257868401515f19600387901b60f8161c191681555b50505050600190811b0190555056fea2646970667358221220b8fba3b4d52cec29bde3c7a6f9808d9ac0cbb37c4292d354e9d1657c40a8a94c64736f6c634300081c0033",
  "linkReferences": {},
  "deployedLinkReferences": {},
  "immutableReferences": {},
  "inputSourceName": "project/contracts/AcademicCertificate.sol",
  "buildInfoId": "solc-0_8_28-99fa2b106b9cecdb08e541d4cb81818194791638"
}